:020000040000FA
:1000000000400020D1180000111900001319000051
:1000100000000000000000000000000000000000E0
:1000200000000000000000000000000015190000A2
:10003000000000000000000017190000191900005E
:100040001B1900001B190000251C00001B190000D3
:100050001B190000000000001B1900001B19000004
:100060001B1900001B190000790D00001B1900006E
:100070001B1900001B1900001B1900001B190000B0
:100080001B190000A11C00001B1900001B19000017
:100090001B1900001B1900001B1900001B19000090
:1000A0001B1900001B1900000000000000000000E8
:1000B0000000000000000000000000000000000040
:1000C000054B0648033310B51B1A062B03D9044B06
:1000D000002B00D0984710BD100100201001002017
:1000E000000000000648074910B5091A8910CB0F17
:1000F0005918491003D0044B002B00D0984710BD6D
:1001000010010020100100200000000010B5074C75
:100110002378002B09D1FFF7D3FF054B002B02D02A
:10012000044800E000BF0123237010BD100100202F
:10013000000000000C3E0000094B10B5002B03D05E
:100140000849094800E000BF08480368002B02D1B5
:10015000FFF7C8FF10BD064B002BF9D09847F7E713
:1001600000000000140100200C3E00000C010020E3
:1001700000000000164B002B00D1144B9D4640227E
:1001800092029A1A924600218B460F461348144A4F
:10019000121A02F050F80F4B002B00D098470E4B6C
:1001A000002B00D098470020002104000D000D48CE
:1001B000002802D00C4800E000BF02F00DF820003B
:1001C000290001F07DFD01F0E1FFC04600000800BC
:1001D000004000200000000000000000100100208E
:1001E0005C0500200000000000000000F0B59DB09C
:1001F0001793C84B08921B6806905A4253430B93BF
:10020000C54B089A1B681A9110934E239B1A109A9B
:1002100093401593C14B1A68002A02D010994942A5
:10022000109108214A401A60BD4A136804331360D4
:1002300001230C93069B002B19D10C93239B002BBD
:1002400015D0089B239A934211DC069B069A0193D2
:100250000093110015231000FFF7C8FFAD4A0123DA
:100260001268904201DC6B461B7EDBB20C93229B32
:10027000AC4A9B00D3181893179B0293029B9A00D9
:10028000A84BD3580993002B00D1CCE0A64B099979
:100290001A68A24B11401B68594012910B1E062B85
:1002A00000DDC0E0013B0593042304930B00022111
:1002B0000B4201D0082304932A230E93099B093B88
:1002C0001A4203D0994B059A9B5C0E93059B5A1ECC
:1002D00093410222D31A1B93099B0D32DB17134063
:1002E000099A9B181B11DB001993029E904B0E9AE2
:1002F0001B689B5C403BF6188A4BB200D358069AA9
:100300000A9353425A41069B9B1B58425841024351
:100310000D9261D0109B229A9B199B1A059A189FE7
:100320001A43534253410A995B421F404B42594181
:10033000049B0220DA0F0023049CC9B2A04253415F
:10034000059A13430D9A03D13A00531E9A41D2B233
:10035000002A01D000290FD1734A0A9B1268013389
:1003600013406E4A12685340092B35DD049B022B63
:1003700002DC059B002B2FD007220A9B023B134275
:100380000CD1674B1A68111F19600823634908686C
:1003900043400B60029B159813600DE2624B61496C
:1003A0001A68099B13400F93109BF31A9B005B582C
:1003B0001340059A1693073B134300D0F1E1062240
:1003C0000F9B02330793554B1B685A40149200242D
:1003D000079B149A934250DD0A9A53425A41059B57
:1003E000D2B2022B02DD002A00D07FE74E490998E5
:1003F00009680123884200DC002304991A40012384
:10040000022900DC002305990B4313430BD00E9BFC
:1004100001330E93049B013B0493049A0E9B5343B8
:10042000002B00D061E7029B01330293622B01DDB8
:10043000142322E7179B029A934200D01EE7384A02
:100440001368043B13600823344A11684B4013605F
:10045000304B18680B9B4043C018002800D1ABE11B
:10046000159A344B9B1A0B9A9A4204DC00200C9B81
:10047000834200D1A0E10B989EE1002303930A9BE5
:10048000002B0DD007212A4B1A680A9B0B40D05C29
:1004900009235843089BBD38C01A059BC31A039310
:1004A000239B002B00D182E1059B012B2CD0204BFC
:1004B00030001B681193184B1B681900139301F04F
:1004C00017FD119B139918184579029801F010FD3A
:1004D000119B1399181843793000ED1A01F0EEFDC5
:1004E000119B1B9A59188B79029853431399ED1855
:1004F00001F0E4FD119B59188B79ED1A199BED1849
:10050000059B002B18D050E1251E00D14DE1092597
:100510004BE1C04648000020040000207801002084
:1005200008000020840100204000002098310000D5
:100530004400002084070000A049731E9B00079A16
:100540005B589B1A58425841721C92005158079BA5
:10055000C91A4B424B4107220799C3180A40119907
:10056000895C092251435B18833BFF3B3A1E00D054
:100570006322D3189C46049B0121D80F0023049AC0
:100580009142434163448E4A169912685D194A406C
:10059000093A50425041039B42199B180393239AF6
:1005A000089B93420FDB012A00DCABE0089B9342DF
:1005B00000D0A7E0834B039A1B689A4203DC0C9B94
:1005C000002B00D19EE07D4A0799B3009950002C82
:1005D00004D023683B600023236002E0002F00D09A
:1005E0003C600021029B754A9B009950089B239A0E
:1005F000934203DB0C9B30008B4200D00020039B16
:100600000B9A049D991A089B5A1C6F4B1B685B68D8
:100610009C46012D03DC059B3500002B00D00025F6
:10062000239B009501936346FFF7E0FD039B1B1A94
:100630000393089B002B1FD1644B029A1B680799F8
:100640009B1A239A013A1343614A1268521A1343C0
:10065000604A03991268B21A13435F4A1268524201
:10066000914209DB002B07D1574A28001368043B4D
:1006700013605A4B1D609FE0129B0620991E049B3D
:10068000049DDA0F0023A84253410A001A430D9B30
:1006900022D1002C20D1239D4A4A6B425D41126831
:1006A0000C9B09991D430123914200DB231C2B4322
:1006B000DDB20A9B1D430D9B0ED115232A00019527
:1006C000009529002800FFF791FD434A0123126895
:1006D000904200DC2B1CDBB2029A09990F93374B36
:1006E0009200D1500A99B200D150002C03D03B683F
:1006F0002360002305E0002F04D00922304B1B6843
:1007000053403B60039B0B9A93421EDD2E4A029995
:10071000136819602399012919DD089900290BD064
:100720001A990398091A12D5043B13600823244A26
:1007300011684B4013603FE0254B079A1A60234B2A
:10074000029A1A60234B1E6001E00B9B03930F9AE1
:100750000D9B002A1FD1194AB300D7183C00029BF9
:100760000834B34200DD143C1649029B0968206836
:100770009B1B9B000122884200DB00221B591A436D
:100780000D9B08D1029BF31AF6180C4BB200D358FC
:100790005A1E9341DBB2079AD3180793039B0B931E
:1007A00016E60F9B1493079311E60023EBE6089BD4
:1007B000002B00DA07E7A5E71DB0F0BD840100209B
:1007C0007801002040000020080000207C0100206B
:1007D0002C0100208001002048000020740100202E
:1007E00010B50B2001F0DEFA084C002804D0236875
:1007F000002B03D0013300E001232360642001F0CB
:1008000041FA206802384342584110BD30010020AF
:10081000F0B5002426001D4B1D4F85B01C608300E1
:1008200003AD0093DB592C8001931B7829001948F4
:100830002B7000F0EBFA0197164F052001F0B2FA89
:10084000002815D0002C14D0019B009A9C58200041
:1008500002F07CF80138B04201D0013600E00026F9
:10086000A35D290038002B70002400F0CFFA00E0CF
:100870000124FFF7B5FF0028DFD028783E2802D1F9
:10088000054B1868C0B205B0F0BDC046300100206D
:10089000300000203401002004000020F0B589B0B1
:1008A0001323604F604D3B602B683E005A1E9341FE
:1008B0005E4C5F4A9B009958200000F0A7FA05950E
:1008C000039433685B4D5C1C3460622B14DC2D6830
:1008D0002000290001F0F2FBEDB2002907D0102220
:1008E000554BA400E3581343544A1268D55C2900C1
:1008F000534800F0A7FFE4E70020FFF789FF514EBF
:100900002C68336818403860A0423FD00220FFF7BF
:100910007FFF33682A68241A1C4054433A68012038
:10092000A418454A3C60A400A2581340464A1360EC
:10093000FFF76EFF33682C681840444B18600220A4
:10094000FFF766FF241A3068404B044028681B6894
:1009500044430493E4183D4B1C603B4C3C4D032046
:100960002E68FFF755FF374B1B681840314B30603E
:100970001B68984219D0059B1B681A000493082332
:100980005A402B681B6853402360E7E731490398BE
:1009900000F0FCF90323002201932F4B11001B6888
:1009A000100000931523FFF721FC0123002201937F
:1009B000294B11001B68100000931523FFF716FC4C
:1009C000214B06AC1A6807231340244A9B00995810
:1009D000039800F01BFA06222149200001F022FCB6
:1009E0003D680A21280001F069FB403121700A218D
:1009F0002800494201F07CFA144B3A301D686070BF
:100A00000A21280001F05AFB4031E1700A21280038
:100A1000494201F06DFA3A3020712100039800F04C
:100A2000F5F93DE77C010020780100203401002029
:100A30000C0000200400002084010020440000205D
:100A4000E4040020400000202C0100208001002050
:100A50000800002058360000740100201400002017
:100A60009F31000010B5054C200000F0AFF8044A9B
:100A70000449200001F054FB10BDC04634010020A1
:100A800000000020F50B0000F7B5214E33685C1C18
:100A90003460782C25DC1F4B20001F683A1D1A603B
:100AA0001D4B1D68290001F023FA2900019001F077
:100AB00005FB012912DD2900200001F0FFFA0129C0
:100AC0000CDD0421019A00230A4208D1134A13685D
:100AD000591C11601F221B78134000E007233B6064
:100AE000D4E796210E48890100F022FF0D4C20002A
:100AF00000F0E4F820000C4900F088F900210520FE
:100B000001F01CF900210B2001F018F9F7BDC046D7
:100B10007C01002008000020040000204400002088
:100B2000E404002034010020A5310000020010B5CB
:100B30001B3200231C00013324340155092BF9D149
:100B400009308242F5D110BD30B5002939DB002AC9
:100B500037DB0C25445F8C4233DD0E25445F944225
:100B60002FDD847E022C09D0032C10D0012C13D150
:100B70000489013CA41A0A0021B20DE00489013C59
:100B8000611A448909B2013CA21A12B204E04489F4
:100B9000013C641A110022B2052462435118094A2B
:100BA000C9B2525C013AD4B2074A525C013AD1B29E
:100BB00009224A43821812190532002B00D0012362
:100BC000D37730BD710000204F000020052210B502
:100BD0000400110000F0CAFA2000054B1B22083364
:100BE00023600021243001F026FB200010BDC04608
:100BF0000836000070470000F7B50025194C1A4F61
:100C0000237806000021F85C01F0B6F80097174F32
:100C10000121E85D013501F0AFF80197092DF6D10A
:100C200023780133DBB22370022B01D90023237018
:100C30000025092723787B43F3185B190533DB7FF5
:100C4000002B04D0019B0021585D01F095F801357F
:100C5000092DEFD12378009A0121D05C01F08CF8A6
:100C6000F7BDC046080400204C00002068000020AA
:100C700000220E4B0E49A22010B55A500424012127
:100C8000C000D9601C50FA2408381A50A40038302B
:100C90001C5008481A508020C122400292009850EF
:100CA0008020054AC0001060196010BD00A00040FF
:100CB000040500004405000000E100E070B50500F7
:100CC0000024194B1860194E0121A05D01F036F87F
:100CD000A05D0121013401F04FF8092CF3D100246B
:100CE000134E0121A05D01F029F8A05D002101341F
:100CF00001F042F8032CF3D128002B0000241B3014
:100D0000002211002431591801320C70092AF8D13F
:100D100009339842F4D10022064B28001A70FFF7DD
:100D2000A7FF012070BDC046040400206800002019
:100D30004C000020080400200C4B10B55A6C0C4CE1
:100D4000002A11D0C1229200A258D2030CD5002251
:100D50005A64084B1868FFF74FFFA822FA21D20007
:100D6000A35889005B18A35010BDC046FCA00040EA
:100D700000A000400404002010B5FFF7DDFF10BD07
:100D800010B503680021DB6B984710BD30B585B006
:100D90000D000400FFF7F4FF012303210293043345
:100DA00001930333009300222B004942200000F0FE
:100DB00053FA05B030BD0000F7B50E00124904002B
:100DC000019200F06DFC002305270525E376013331
:100DD000E382A3827F42300001F0B8FD00B2013807
:100DE000784385420EDD0523258263822000FFF7CC
:100DF000C7FF3100200000F021FD019800F042FF04
:100E0000013DE8E7F7BDC0460033000070B50D00B6
:100E10000F490400002600F043FC0123E676E3823C
:100E2000A382280001F092FD012805D9962229000D
:100E30002000FFF7C1FF09E02000FFF7A1FF052315
:100E4000268263822900200000F0F8FC70BDC046B5
:100E500000330000F0B515000C001E0089B00EAB89
:100E600000229B5E0FAA1288019006925A1BD1178E
:100E700052184A400292321BD11752184A4003922C
:100E80000399029A8A4205DD32001E0013002200F7
:100E90002C001500B44205DD2A001D0013002200BD
:100EA00034001600321B92B205925A1BD117521809
:100EB0004A4007926A461421525ED10F8A18521096
:100EC00092B20092012204929D4201DB154B0493E1
:100ED000B44224DC019B029A1B6803991B691F0022
:100EE000069B8A4202DD2200290001E02A0021003F
:100EF0000198B847009A079BD31A9BB29AB2009206
:100F00006A46128812B2002A06DA049AAD18059AC7
:100F10002DB2D3189BB20093013424B2D8E709B0A4
:100F2000F0BDC046FFFF000010B50468A468A047EC
:100F300010BD37B506AC258804680095246BA04722
:100F400037BD37B506AC258804680095646BA047AB
:100F500037BD73B506AC0025655F07AC268804680D
:100F600001960095A46BA04773BD7047F0B51600BD
:100F700004000D0085B003930AAB1F880368DB688B
:100F80009847039B2268013B9B191BB20093019772
:100F9000176A2B00320029002000B8472368200080
:100FA0005B6A984705B0F0BDF0B505001C000E0067
:100FB000170085B00AAB1B88013C03930368A41992
:100FC000DB68984703992A680191009723B23100A2
:100FD000146A28003A00A0472B6828005B6A9847EB
:100FE00005B0F0BDF0B50E0087B003930CAB0292D4
:100FF00000229B5E050004930DAB1B883400059313
:101000000368DB689847039B2A68F3189C420ADA56
:10101000059B210000939769049B029A28000134E4
:10102000B84724B2EFE7536A2800984707B0F0BDED
:1010300013B501910E24015F0C22835E02680091BA
:10104000946B00221100A04713BDF0B585B0029348
:101050000AAB00241C5F0BAB1B8817000393029B99
:1010600005000E1E02689E420BD1A74202DD3B0026
:1010700027001C0003990134E31B00911BB2146B81
:101080000DE0A74210D1029B994201DD029E029120
:10109000029B0399013300919B1B546B1BB23A00D6
:1010A00031002800A0470FE0D3689847039A2B68C7
:1010B000019200941C6A2800029B3A003100A0476C
:1010C0002B6828005B6A984705B0F0BDF0B50400B6
:1010D00016000D0087B004930CAB00229B5E0593B5
:1010E0000DAB1B8803930368DB689847039A23685A
:1010F0000092DF693200049B29002000B847059B5D
:1011000003995A1E236800919219DF692900049BF4
:10111000200012B2B847039A236800929F693200F8
:10112000059B29002000B8470499039A23680139D8
:1011300000924D1929B29F693200059B2000B847E3
:10114000236820005B6A984707B0F0BD704703230F
:101150001940817603894289012904D0032902D0EC
:101160008381C28101E08281C381704701818181D5
:10117000012100234281C281012210B5074C49425E
:1011800008344360046083760382438242760276A9
:10119000C1828182C2760377036210BD603600008F
:1011A000F0B500278DB0099312AB049200229B5E2C
:1011B0000891059313AB00229B5E04000A9314ABC5
:1011C0001B883D000B930368DB6898470721059B4C
:1011D00006910733DA170A40D318DB100793049BF4
:1011E00001936B46049A9B8803939B1A0A9A1BB23D
:1011F0009A422BDD002302936B461989059A0BB2A4
:1012000093421CDA069A6D00EDB2114207D106989E
:10121000DA170240D318099ADB10D219D55C6BB2E9
:10122000002B09DA089B019AC918236809B21B69C7
:1012300020001E000B9BB047029B0133DBE7039BA2
:1012400001331BB20193079BFF18CAE723682000F4
:101250005B6A98470DB0F0BD7FB508AC0025645FB0
:1012600009AD0026AD5F0AAE36880195029600945E
:10127000FFF796FF7FBD0000F0B595B01E001AABDA
:101280001B88040004931BAB1D881CAB1F781DAB8F
:101290001B7806910293036A0392002B00D0D1E0E1
:1012A0000C22835E8B4200DC77E10E22835E039A80
:1012B000934200DC71E106237B435B18002B00DCCA
:1012C0006BE1029B039ADB009B18002B00DC64E1BE
:1012D000037F002B03D1AF2E01D90136F6B223686C
:1012E0002000DB68984705235E430B9300230E968E
:1012F0000A9328226B469B181B78A94A0E995BB269
:101300005218D25C9BB20893BBB20F936B461B8BF7
:1013100009920593089BBAB25343059AD3189BB21E
:101320000D9308230C93002307930122099B13427A
:1013300020D06B461C229A56012F0DD1029B012B07
:101340000AD1039B0599D218089B12B25918236839
:1013500009B21E69049B22E00299049E4A43039944
:101360003BB2521869463420095E206812B21090D0
:10137000019623E0049BAB4228D06B461C229A5670
:10138000012F0FD1029B012B0CD1039B0599D21881
:10139000089B12B25918236809B21E692B0020005D
:1013A000B04713E002993BB24A4303995218694689
:1013B0003420095E206812B2109001956846082614
:1013C000865F1098009646692000B047079B01335E
:1013D000DBB20793099B5B0809930C9B013BDBB2D3
:1013E0000C93002BA1D10A9B0133DBB20A930B9B18
:1013F000013BDBB20B93002B00D07AE7049BAB429E
:1014000000D1C6E02268012F0CD1029B012B09D12B
:10141000059F00950537956939B20733039A200077
:10142000A847B6E005210F983BB2414305980195C6
:101430004718029839B2C000009055692000039AFD
:10144000A847A6E01A7AB61AF6B25A68F6001B68E0
:101450009619139333880893B3780C93F378109309
:1014600073790D93B3790E93012F02D8029B012B50
:101470000ED934226B469B181B7804325BB29BB2A8
:101480000A936B469B181B785BB29BB20B9302E0EE
:1014900000230B930A93002523682000DB689847FC
:1014A00009950795109AEBB2934272D26B469B89CD
:1014B000029A0F930B9BEB1853430F9AD3180022F9
:1014C0009BB21293099B05920C9A0599914257D2AF
:1014D0005A1CD2B211920722134207D1089B0899D5
:1014E000139A0133525C9BB2079208936B461B7FA1
:1014F0005BB2002B3ADA012F1ED1029B012B1BD1CC
:101500006B4638229B1800229A560F9B34219A185A
:10151000FF232B40D2186B465B1800215956069BBF
:1015200012B2C918059B2000C918236809B21B69AB
:101530001E00049BB04719E048216A46521800215A
:10154000525E69462820095E05983BB20918794326
:1015500006980918049809B2019068460826805F29
:1015600000902068406906002000B047079B059E58
:101570005B00DBB201360793F3B20593119BA3E73F
:101580000C9A099B94466344DBB201350993ADB2D2
:1015900088E7236820005B6A984715B0F0BDC04615
:1015A000B0360000F0B5026A85B004000B00002AD6
:1015B0002AD10A2903D1437E0282DB002BE00D29C8
:1015C0006BD0C17E457E007E00290DD006214143AF
:1015D0001027E65F89190C27E65FB14204DD618AB6
:1015E0002282EA00521862820290E08A1221625E30
:1015F0000190A08A1026A15F009003952000FFF7BC
:101600003BFE237E062244E00A2908D10023038200
:10161000127B437E5343628A9B1863823DE00D290F
:101620003BD0157AA94238D3917A994235D35D1BC4
:101630005168EDB2ED004D19A978002927D0E8785E
:10164000002824D0E77E667E207E002F12D005275A
:10165000EF57791841438C461021675EBC440C213A
:10166000675EBC4506DD00212182127B618A7243E0
:10167000521862820290E08A1221625E0190A08A72
:101680001027E15F009003962000FFF7F5FD2B790E
:10169000227E5343228A9B182382012005B0F0BD8D
:1016A000036A002904D0002B07D1438A063303E0E4
:1016B000002B02D0438A063B438201627047F8B593
:1016C00005000E0017000024BC4208D02B68315DD5
:1016D0001B6828009847002801D00134F4E7200057
:1016E000F8BD704710B51C3000F0D9F810BD10B52A
:1016F0001C3000F0C6F810BD70B5437E0D00002B05
:1017000005D06430040000F0D9F8002801D0002092
:1017100004E02000290000F0A5F8012070BD10B5FC
:101720001C3000F0C2F810BDF7B50193FA23002574
:1017300004009B0083600B4B4560083303601C3042
:101740000F00160000F083F82000643000F07FF8EE
:101750006B461B79276166756576A5762000A375B3
:10176000FEBDC046B03B000010B513231422024951
:101770000248FFF7D9FF10BD004000400C040020D4
:1017800070B5002504AC24780573A94205D10A4B35
:101790000A4A25210A4800F0CBFC01600949920061
:1017A00052589B0002715B588371A3005B5885609F
:1017B00043710223C37170BD0D3C0000D03B00009B
:1017C0001B3C0000803C000007B58022074BD2057F
:1017D0001A6000229A6002321A710F230C320093B1
:1017E0000349023B0348FFF7CBFF07BDC4040020B9
:1017F00000300040D0040020F7B506000D000C00BA
:101800008B180193019B671B9C4207D0336821789A
:101810001B683000984701340028F3D13800FEBD22
:1018200070B505000C00081E07D001F08FF82B687A
:1018300002005B6821002800984770BD10B5FFF7D3
:10184000EFFF10BD10B503681B68984710BD10B5B9
:1018500040220021040000F0EEFC0023200023645D
:10186000636410BD3F23026C10B5541C2340446CCC
:101870009C4201D08154036410BD0023036443647F
:101880007047436C026C934206D03F21C25C013327
:101890000B404364100001E0012040427047036C9C
:1018A000406C181A00D540307047436C026C93426C
:1018B00001D0C05C01E0012040427047036C406CE5
:1018C0005A1C3F231340181A42424241D0B270477B
:1018D00003210A4802680A430260094802680A4371
:1018E00002600849084A094B9B1A03DD043BC858AB
:1018F000D050FBDC00F012F8FEF73CFC2405004061
:1019000054050040183E0000000000201001002097
:10191000FEE7FEE7FEE7FEE7FEE7FEE7014A024BD1
:101920001A6070470024F4008C00002001207047EA
:1019300010B503681322DB69984710BD704700009B
:101940000369054A9950FC331A6A002AFCD0002228
:1019500001201A627047C0461C050000030010B544
:101960005C331A781F2313400122110099400D4B5C
:101970000424D967C221036989005C505A60DA6087
:10198000A0220021D20099500122074952425A5008
:10199000064914305A500C395A5008315A50FFF742
:1019A0006CFF10BD04E100E00C0500001405000010
:1019B00010B51430FFF773FF10BD10B51430FFF7EA
:1019C00074FF10BD10B51430FFF75BFF10BD0000B1
:1019D000030070B55E331C780269604BD45003007D
:1019E0005D331C785E4BD450030061331C785D4B33
:1019F000012C0CD105005F352E78A225ED00565143
:101A0000050060352E78A125ED00565100E0002438
:101A1000D4509623DB00994238D996231B01994272
:101A200037D996235B01994236D996239B01994277
:101A300034D9E1239B01994232D99623DB019942A3
:101A400031D9E123DB0199422FD996231B02994218
:101A50002DD9E1231B0299422BD996235B0299428F
:101A600029D9E1235B02994227D9E1239B029942BC
:101A700025D93D4B994224D9E123DB02994223D950
:101A8000E1231B03994221D8384B21E09E23DB023E
:101A90001EE09D231B031BE0354B19E0354B17E07F
:101AA000EC239B0314E0344B12E0344B10E0344B36
:101AB0000EE0344B0CE0344B0AE0344B08E0344B7E
:101AC00006E08023DB0403E0324B01E080235B056A
:101AD0003149002453500423243953501100FC3160
:101AE000CC600C62C1210134890014605C309460C8
:101AF000535003781F202200D9B20840824080341E
:101B00002648FF345BB20251002B13DA0F230B403F
:101B1000083B234C9B089B001B1903242140A14038
:101B2000FC348C40DD69A543C0248C40210029434E
:101B3000D96111E0194C9B089B001B19032421401B
:101B4000A140C025FC348C40AD005E59A643C024A2
:101B50008C40210031435951026070BD0C050000DA
:101B6000140500006C05000090D0030000D0BE0EEC
:101B700000B013000050270000A04E0000F07500D8
:101B800000509D0000F0EB0000903A0100E0D7010A
:101B900000B0AF0300705F072405000000E100E023
:101BA00000ED00E0F7B5009308AB1B78002501932A
:101BB000FA2304009B0083600E4B456008330360EA
:101BC00014300F001600FFF742FE23005C3327613C
:101BD0001E70009B084A9B00995823005D331970C2
:101BE000019B20009B009A5823005E33DD701A7021
:101BF000FEBDC046043D0000803C0000036910B5F6
:101C00001A00FC32D2680400002A0AD0A322D200B3
:101C100099581430C9B2FFF725FE00222369FC331E
:101C2000DA6010BD10B50248FFF7E8FF10BDC046EE
:101C3000E4040020162307B5022200930249013B69
:101C40000248FFF7AFFF07BD00200040E40400207A
:101C5000FEE70000084A0949094B10B51B6888587F
:101C6000FA22190A1B0618439200002300F02CFAEE
:101C70004904C00B084310BD0405000000100140DA
:101C80004805002070B5041E09D0FFF7E3FF0500EA
:101C900000F014F8FFF7DEFF401B8442F8D870BD57
:101CA0000022044B9A60044A13680133DBB21360CC
:101CB0007047C046FC10014048050020704770473F
:101CC00010B500F011F8FFF7FAFF0120FFF7DAFF77
:101CD000FEF7DAFEFEF7E2FD024B002BFAD000E041
:101CE00000BFF7E700000000C421114A89005058E6
:101CF000104B0340C020000203435350802391390E
:101D00009B02FF39535013608023A3220021DB057F
:101D1000D20099500122A1209A60074BC0001950AF
:101D2000C120023180001950403019501A607047AC
:101D300000E100E0FF00FFFF0010014000B5202897
:101D400016D80C4A83009B58032911D8A0220800FA
:101D5000C133FF33D2059B0000F036F802080406B9
:101D6000002104E00C2102E0042100E00321D15015
:101D700000BDC046803C000020280DD8074B8000E5
:101D8000C25801239340A022D205002901D1044961
:101D900001E0A121C90053507047C046803C0000BB
:101DA0000C05000003000020202B0AD8A222A0214D
:101DB000D200C9058858034A9B009B58D84001238C
:101DC00018407047803C000002B471464908490041
:101DD000095C49008E4402BC7047C046002243089B
:101DE0008B4274D303098B425FD3030A8B4244D3E3
:101DF000030B8B4228D3030C8B420DD3FF22090225
:101E000012BA030C8B4202D31212090265D0030BE3
:101E10008B4219D300E0090AC30B8B4201D3CB03D9
:101E2000C01A5241830B8B4201D38B03C01A52411B
:101E3000430B8B4201D34B03C01A5241030B8B421D
:101E400001D30B03C01A5241C30A8B4201D3CB0208
:101E5000C01A5241830A8B4201D38B02C01A5241ED
:101E6000430A8B4201D34B02C01A5241030A8B42F0
:101E700001D30B02C01A5241CDD2C3098B4201D308
:101E8000CB01C01A524183098B4201D38B01C01A86
:101E9000524143098B4201D34B01C01A52410309FD
:101EA0008B4201D30B01C01A5241C3088B4201D3AC
:101EB000CB00C01A524183088B4201D38B00C01A59
:101EC000524143088B4201D34B00C01A5241411A80
:101ED00000D20146524110467047FFE701B500208D
:101EE00000F0F0F802BDC0460029F7D076E7704751
:101EF00003460B437FD4002243088B4274D303096B
:101F00008B425FD3030A8B4244D3030B8B4228D30B
:101F1000030C8B420DD3FF22090212BA030C8B4231
:101F200002D31212090265D0030B8B4219D300E0D1
:101F3000090AC30B8B4201D3CB03C01A5241830B56
:101F40008B4201D38B03C01A5241430B8B4201D306
:101F50004B03C01A5241030B8B4201D30B03C01A2F
:101F60005241C30A8B4201D3CB02C01A5241830AA9
:101F70008B4201D38B02C01A5241430A8B4201D3D8
:101F80004B02C01A5241030A8B4201D30B02C01A02
:101F90005241CDD2C3098B4201D3CB01C01A524169
:101FA00083098B4201D38B01C01A524143098B42F2
:101FB00001D34B01C01A524103098B4201D30B01DB
:101FC000C01A5241C3088B4201D3CB00C01A524100
:101FD00083088B4201D38B00C01A524143088B42C5
:101FE00001D34B00C01A5241411A00D2014652415E
:101FF000104670475DE0CA0F00D04942031000D37D
:102000004042534000229C4603098B422DD3030AD1
:102010008B4212D3FC22890112BA030A8B420CD3E1
:10202000890192118B4208D3890192118B4204D30A
:1020300089013AD0921100E08909C3098B4201D38A
:10204000CB01C01A524183098B4201D38B01C01AC4
:10205000524143098B4201D34B01C01A524103093B
:102060008B4201D30B01C01A5241C3088B4201D3EA
:10207000CB00C01A524183088B4201D38B00C01A97
:102080005241D9D243088B4201D34B00C01A52416E
:10209000411A00D20146634652415B10104601D3FB
:1020A0004042002B00D54942704763465B1000D385
:1020B000404201B5002000F005F802BD0029F8D02B
:1020C00016E770477047C046F0B54F464646C0B465
:1020D0001604360C9946330005042C0C070C150C1D
:1020E00063437E436F4365431C0CAD1964199C46E2
:1020F000A64203D980235B02984647446346250CD9
:10210000EF191D044B464A4343432D0C2404641924
:102110009918C91920000CBC90469946F0BDC046DC
:102120000B0010B50100180000F022F810BD0000EF
:102130007FB51D000A4B06001B68D868002A02D133
:10214000084C230001E01300074C02930091330078
:102150002A000649019400F02FF800F0CBFCC0469D
:10216000F00000206F3D0000343D0000413D0000C4
:1021700070B5054C05001300201E04D00A00022093
:10218000290000E000BF70BD00000000084B10B542
:102190000400002B02D0002100E000BF054B1868AE
:1021A000836A002B00D09847200000F0E7FFC0466C
:1021B00000000000743D00000EB403B5010003AB45
:1021C000044804CB0068019300F002F902B008BC97
:1021D00003B01847F00000200E4B70B500251E001C
:1021E0000D4CE41AA410A54204D0AB00F358984754
:1021F0000135F8E700F0C4FF084B00251E00084C2D
:10220000E41AA410A54204D0AB00F3589847013556
:10221000F8E770BDF4000020F4000020F400002076
:1022200008010020002310B59A4203D0CC5CC454AE
:102230000133F9E710BD03008218934202D01970F0
:102240000133FAE77047000030B500293ED0043969
:102250000B68002B00DAC9181D4A13681400002B04
:1022600002D14B60116031E08B420DD90A688818A9
:10227000834203D118685B6882180A604B60216052
:1022800024E08A4203D813005A68002AF9D11D6855
:102290005C198C420BD10968691858181960824280
:1022A00014D110685268411819605A600EE08C42CF
:1022B00002D90C23036009E008680C18A24203D17C
:1022C00014685268201808604A60596030BDC046E2
:1022D00050050020032370B5CD1C9D430835060032
:1022E0000C2D01D20C2505E0002D03DA0C23002073
:1022F000336040E0A942F9D81F4B1C681A00210046
:10230000002913D00B685B1B0DD40B2B02D90B607B
:10231000CC181EE08C4202D1636813601AE04B684F
:1023200063600C0016E00C004968E9E7134C236871
:10233000002B03D1300000F0F7FA206029003000B4
:1023400000F0F2FA431CD1D00323C41C9C43A042EA
:102350000AD12560200007220B30231D9043C31AA9
:1023600009D05A42E25006E0211A300000F0DCFAAF
:10237000431CEED1BAE770BD500500204C0500208B
:10238000936810B5013B9360002B05DA9469A34272
:1023900008DBCBB20A2B05D01368581C10601970EB
:1023A000C8B201E000F0DAFA10BDF8B506000F007F
:1023B0001400D518AC4208D021783A003000FFF75D
:1023C000DFFF0134431CF5D100E00020F8BD000020
:1023D000F0B59FB006000F0002920593002804D0CC
:1023E0008369002B01D100F081FC7F4B9F4201D11A
:1023F000776808E07D4B9F4201D1B76803E07C4BD2
:102400009F4200D1F768BB891B070AD53B69002BA7
:1024100007D0002306AD6B6120336B761033AB76AB
:102420003DE03900300000F0F1FA0028F1D0012041
:102430004042D6E0059A111D12680591002A00DA83
:102440007FE00992013423782E2B00D18DE0217892
:102450000322684800F030FD002807D0654B2A6849
:10246000C01A4023834013432B6001342178631C3E
:10247000062261480293297600F01EFD002800D153
:102480009DE05E4B002B00D090E00722059B0733B8
:102490009343083305936B69039A9B186B61029C05
:1024A0002378002B04D1029BE31A049312D003E09B
:1024B000252BF8D00134F3E7049B029A3900300051
:1024C000FFF773FF431C00D186E06A69049B9446C2
:1024D00063446B612378002B7ED00122002352429B
:1024E0006A6002A95432521801342B60EB60AB6071
:1024F0001370AB6521780522414800F0DDFC00280F
:1025000008D03F4B2A68C01A0123834013432B6035
:102510000134EFE72B68DA0604D55322202102A804
:10252000121811701A0704D553222B2102A8121871
:10253000117022782A2A00D17CE7099B00200A2109
:1025400005E05242EA60022213432B607AE72278C8
:10255000303A092A04D84B4301349B180120F6E78E
:10256000002800D16FE709936DE763782A2B0AD121
:10257000059B02341A1D1B680592002B01DA01230A
:102580005B42079363E700230A201A0001346B6063
:1025900021783039092904D84243013452180123E3
:1025A000F6E7002B00D152E7079250E705AB009306
:1025B0003A00144B2900300000E000BF07E005ABF3
:1025C00000933A000F4B2900300000F08BF8039085
:1025D000039B013300D05EE7BB895B0600D526E78D
:1025E0000B981FB0F0BDC046AC3D0000CC3D0000D4
:1025F000EC3D00007E3D0000823D00000000000038
:10260000783D0000AB230000F7B5170001938A68FE
:102610000B6900900C00934200DA130022003B602B
:1026200043321278002A01D001333B6023689B06B5
:1026300002D53B6802333B60062523681D401ED04F
:10264000230043331B785A1E9341226892061CD5FF
:102650003020E1184331087021005A1C45310978B7
:10266000A2184332023311700FE022000123193205
:1026700001990098089EB047431C0ED00135E368CD
:102680003A689B1A9D42F0DBDAE722000199433257
:102690000098089DA847431C02D10120404220E039
:1026A00006232068E1683A6803400025042B03D123
:1026B0008D1AEB43DB171D40A3682269934201DDAD
:1026C0009B1AED180027BD420AD0220001231A32BE
:1026D00001990098089EB047431CDED00137F2E70D
:1026E0000020FEBDF0B58BB006920A00433207937E
:1026F000059004920A7E0C00109B6E2A00D1ABE07C
:1027000011D8632A22D009D8002A00D1B5E0582A6E
:1027100000D0C5E045310A70814A4FE0642A1DD0DF
:10272000692A1BD0BCE0732A00D1AAE009D86F2A1D
:1027300029D0702A00D0B3E0202209680A43226021
:1027400037E0752A1FD0782A33D0A9E00E001A6826
:102750004236111D196013683370A4E021681A68AD
:10276000080606D4490604D5111D19600023D55E5C
:1027700002E0111D19601568002D3BDA2D23049A23
:102780006D42137036E021681A68080606D44906BF
:1027900004D51568111D1960ADB202E0111D196054
:1027A00015685F4B227E039308276F2A1DD00A27E6
:1027B0001BE022007821453211705A4A19680392B1
:1027C000081D226818600D68100602D4500600D556
:1027D000ADB2D30702D520231A4322601027002D63
:1027E00003D1202322689A4322602300002243332E
:1027F0001A7002E00A274A4B03936368A360002B18
:1028000009DB0422216891432160002D05D1049E3B
:10281000002B11D07BE0002D79D0049E28003900D8
:10282000FFF762FB039B013E5B5C280033703900BD
:10283000FFF7D4FA051EF1D1082F09D12368DB0771
:1028400006D563682269934202DC3023013E33706F
:10285000049B9B1B23612BE009681A68080607D4B8
:10286000490605D5111D19601368A28A1A8004E073
:10287000111D1960136862691A600023049E2361A8
:1028800016E01A68111D1960166800216268300090
:1028900000F012FB002801D0801B6060636803E039
:1028A000260042363270012323610023049A1370FC
:1028B000079B09AA00932100069B0598FFF7A4FE39
:1028C000431C02D10120404227E0236932000699CF
:1028D0000598079DA847431CF4D0236800259B0753
:1028E0000FD4099BE068984217DA180015E022001F
:1028F0000123193206990598079EB047431CE1D081
:102900000135E368099A9B1A9D42F0DBE9E726004E
:10291000039B42361B7833708EE70BB0F0BDC04688
:10292000893D00009A3D0000002370B5064C05006B
:102930000800236000F00CFC431C03D12368002B2B
:1029400000D02B6070BDC046580500200023C25C3B
:102950000133002AFBD1581E70470000F8B505006E
:102960000F001400002804D08369002B01D100F06F
:10297000BDF9234B9C4201D16C6808E0214B9C427D
:1029800001D1AC6803E0204B9C4200D1EC68A36904
:10299000A360A3891B070AD52369002B07D02368EE
:1029A0002269FEB2981A636998420FDB08E02100A1
:1029B000280000F02BF80028F1D0012040421DE053
:1029C0002100280000F024F90028F6D1A368013086
:1029D000013BA36023685A1C22601F706369984200
:1029E00005D0A3893000DB0708D50A2E06D12100C7
:1029F000280000F00DF90028DFD13000F8BDC046F6
:102A0000AC3D0000CC3D0000EC3D0000354B70B506
:102A10001D6806000C00002D05D0AB69002B02D10B
:102A2000280000F063F9304B9C4201D16C6808E04B
:102A30002E4B9C4201D1AC6803E02D4B9C4200D14F
:102A4000EC68A3899AB2110723D4D10607D40922CE
:102A50000120326037321343A381404240E05307E4
:102A600013D5616B002908D023004433994202D06A
:102A70003000FFF7E9FB002363632422A38993431B
:102A8000A38100236360236923600822A389134381
:102A9000A3812369002B0BD1A023A2899B001340A3
:102AA00080229200934203D02100300000F0B2F95E
:102AB0000123A289134005D00023A36063695B4210
:102AC000A36103E0910700D46369A3600020236938
:102AD000834205D1130603D540231A43A28101384E
:102AE00070BDC046F0000020AC3D0000CC3D0000B1
:102AF000EC3D000010B5062000F014FA012000F0B3
:102B00003DFB0000F7B58A8905000C0013075AD475
:102B10004B68002B02DC0B6C002B19DDE76A002FE1
:102B200016D000232E682B6080235B011A4001D051
:102B3000606D14E00123216A2800B847431C0ED1C0
:102B40002B68002B0BD01D2B01D0162B02D12E6031
:102B500000205AE04022A3891343A38155E0A389B2
:102B60005B0706D56368C01A636B002B01D0236C2A
:102B7000C01A00230200216A2800E76AB847A38927
:102B8000421C06D129681D293AD8204ACA40D207DA
:102B900036D50022626022692260DB0405D5431C21
:102BA00002D12B68002B00D16065616B2E6000297B
:102BB000CED023004433994202D02800FFF744FBD3
:102BC0000020606321E00F69002FC1D00B680F6007
:102BD000DB1B01930023920700D14B69A36003E044
:102BE000019B3F181B1A0193019B002BB0DD019B39
:102BF0003A00216A2800A66AB0470028F0DCA389C1
:102C0000402201201343A3814042FEBD0100402029
:102C10000B6970B505000C00002B01D100201CE0F1
:102C2000002804D08369002B01D100F05FF80B4B22
:102C30009C4201D16C6808E0094B9C4201D1AC6810
:102C400003E0084B9C4200D1EC680C22A35E002BF1
:102C5000E4D021002800FFF755FF70BDAC3D000017
:102C6000CC3D0000EC3D000010B5024900F0B0F88A
:102C700010BDC046112C0000002310B504000360F5
:102C80004360836081814366C281036143618361E4
:102C9000190008225C30FFF7CEFA054B246263620C
:102CA000044BA362044BE362044B236310BDC04694
:102CB000652F00008D2F0000C52F0000F12F0000B0
:102CC00070B568254B1E5D430E0029007431FFF777
:102CD00001FB041E08D000212A00016046600C3070
:102CE000A0606832FFF7A7FA200070BD836913B5B2
:102CF0000400002B28D18364C3640365134B144A7A
:102D00001B6882620193984201D1012383612000F4
:102D100000F020F86060200000F01CF8A0602000A7
:102D200000F018F80022E06004216068FFF7A4FFBB
:102D300001220921A068FFF79FFF02221221E0680B
:102D4000FFF79AFF0123A36113BDC046743D000045
:102D5000692C0000F8B51D4B06001D68AB69002BFF
:102D600002D12800FFF7C2FF4835AC686B68013B11
:102D700005D40C22A75E002F10D06834F7E72B682B
:102D8000002B01D02D68F0E704213000FFF798FFF9
:102D900028600028F6D10C23336016E001232000C0
:102DA0005B42E3810233A38167662760A7606760A7
:102DB00027616761A7615C3008223900FFF73BFAA1
:102DC00020006763A763A764E764F8BD743D000053
:102DD000F7B504000700002601914834002C16D0F6
:102DE0006368A5680093009B013B00930DD4AB89F9
:102DF000012B08D90E22AB5E013304D02900380024
:102E0000019B984706436835EDE72468E6E7300004
:102E1000FEBD0000F0B58B8991B006000C009B0749
:102E200026D40E23C95E002904DA8023A5891D401B
:102E300010D10CE001AA00F007F90028F5DBF0231F
:102E4000029D1B021D401A4BED186B425D4180270D
:102E5000FF0001E00025402739003000FFF73AFA73
:102E600000280CD1A3899A051FD402221343A38101
:102E700023004733236023610123636115E080222F
:102E80000C4BB362A38920601343A3812061676167
:102E9000002D0AD00E23E15E300000F0E7F8002894
:102EA00003D00122A3891343A38111B0F0BDC04612
:102EB00000E0FFFF692C0000C9B28218904204D0E4
:102EC00003788B4202D00130F8E70020704770B5DC
:102ED00004000D1E1F2D04D916230360012040425B
:102EE0001EE0426C002A04D08B00D2181368002B1D
:102EF00008D1200000F032F82A000100200000F084
:102F00001BF80DE00020012B0AD0591C03D1173308
:102F10002360013004E0002428001460984720005A
:102F200070BD000010B5034B01001868FFF7CFFF1C
:102F300010BDC046F0000020002370B5064C05000F
:102F400008001100236000F0EBF8431C03D1236854
:102F5000002B00D02B6070BD5805002010B500F08C
:102F6000CFF810BD70B50C000E25495F00F0A4F835
:102F7000002803DB636D1B18636503E0A289024B25
:102F80001340A38170BDC046FFEFFFFFF8B51F00DF
:102F90008B8905000C001600DB0505D50E23C95EE4
:102FA0000022022300F074F8A289054B2800134088
:102FB000A38132000E23E15E3B0000F01FF8F8BD54
:102FC000FFEFFFFF70B50C000E25495F00F060F8C1
:102FD000A389421C03D1054A1340A38104E0802247
:102FE00052011343A381606570BDC046FFEFFFFF30
:102FF00010B50E23C95E00F015F810BD70B50500C0
:10300000080011000022064C22601A0000F0AEF801
:10301000431C03D12368002B00D02B6070BDC04639
:1030200058050020002370B5064C050008002360F9
:1030300000F056F8431C03D12368002B00D02B600E
:1030400070BDC04658050020002370B5064C050031
:1030500008001100236000F04BF8431C03D12368E3
:10306000002B00D02B6070BD58050020002370B5E8
:10307000064C05000800236000F04AF8431C03D109
:103080002368002B00D02B6070BDC046580500207F
:1030900070B50500080011000022064C22601A00DD
:1030A00000F046F8431C03D12368002B00D02B60AE
:1030B00070BDC0465805002070B50500080011001D
:1030C0000022064C22601A0000F03AF8431C03D19B
:1030D0002368002B00D02B6070BDC046580500202F
:1030E00058220120014B40421A60704758050020C9
:1030F00058220120014B40421A60704758050020B9
:1031000058220120014B40421A60704758050020A8
:103110005822024B00201A607047C0465805002014
:1031200058220120014B40421A6070475805002088
:1031300058220120014B40421A6070475805002078
:1031400058220120014B40421A6070475805002068
:10315000044A1368002B03D0181810601800704739
:10316000014BF9E75405002060050020582201209A
:10317000014B40421A60704758050020FEE7C046E8
:10318000F8B5C046F8BC08BC9E467047F8B5C046C6
:10319000F8BC08BC9E46704726202E242020002D17
:1031A0002D2D2D2D004E616E6F6368657373003E8B
:1031B000414243444546474800313233343536377F
:1031C00038003E4E515242005061776E004B696E9E
:1031D00067004B6E6967687400426973686F7000BE
:1031E000526F6F6B00517565656E00576869746545
:1031F00000426C61636B00757374767274737571E1
:103200007171717171717179797979797979797D62
:103210007B7C7E7A7C7B7D20202037364C736162FC
:10322000636464636261202E706B6E627271202031
:10323000504B4E425251203F41364A3537494B4A56
:10324000543537362C2B2D3438484C53550000E874
:10325000B4BEFA79E48542DBD6C06A409580AA8084
:103260005D0060E080254876DC7540C54EC51CB722
:1032700092F31C73DEE548F7DEF79CA0462A22E3B2
:103280008088A8E50457C657DAD75C7246D6DCF3C7
:10329000CEF3C873D6B7DAE92E24D4B75A924EBF0C
:1032A000DABFFA56D4D74856F6D7EA711CE924B6E5
:1032B000D6B6A4B7FAB55AB524E54EF24E8880E4E6
:1032C0009E54E090CEF09ADC72302ED677302BA44C
:1032D00077949ADAB8209A80976AC92EFFD0D6D010
:1032E00056A0D6E876B2724079E05D26B6B0B7A0B7
:1032F000BFF0A950B594EF706A26D8C8AC7800002A
:103300004E3200001033000020007E000600000056
:10331000000001010200FB00010001050200FB00AA
:10332000020003020400FB00030003050400FB008D
:10333000050003050400FB00070003050400FB0073
:10334000090003050400FB000B0001020200FB0062
:103350000C0002050300FB000E0002050300FB0049
:10336000100003030400FB00120003030400FC0030
:10337000140002020300FE00150003010400FD001A
:10338000160001010200FF00170003050400FB0006
:10339000190003050400FB001B0002050300FB00ED
:1033A0001D0003050400FB001F0003050400FB00D3
:1033B000210003050400FB00230003050400FB00BB
:1033C000250003050400FB00270003050400FB00A3
:1033D000290003050400FB002B0003050400FB008B
:1033E0002D0001030200FC002E0002040300FC007B
:1033F0002F0003050400FB00310003030400FC0060
:10340000330003050400FB00350003050400FB0046
:10341000370003050400FB00390003050400FB002E
:103420003B0003050400FB003D0003050400FB0016
:103430003F0003050400FB00410003050400FB00FE
:10344000430003050400FB00450003050400FB00E6
:10345000470003050400FB00490003050400FB00CE
:103460004B0003050400FB004D0003050400FB00B6
:103470004F0003050400FB00510003050400FB009E
:10348000530003050400FB00550003050400FB0086
:10349000570003050400FB00590003050400FB006E
:1034A0005B0003050400FB005D0003050400FB0056
:1034B0005F0003050400FB00610003050400FB003E
:1034C000630003050400FB00650003050400FB0026
:1034D000670003050400FB00690003050400FB000E
:1034E0006B0003050400FB006D0003050400FB00F6
:1034F0006F0003030400FC00710003050400FB00DF
:10350000730003020400FB00740003010400FF00C9
:10351000750002020300FB00760003040400FC00B7
:10352000780003050400FB007A0003040400FC009B
:103530007C0003050400FB007E0003040400FC0083
:10354000800003050400FB00820003050400FC006A
:10355000840003050400FB00860001050200FB0057
:10356000870003060400FB008A0003050400FB003B
:103570008C0003050400FB008E0003040400FC0023
:10358000900003040400FC00920003040400FC000B
:10359000940003050400FC00960003050400FC00F1
:1035A000980003040400FC009A0003040400FC00DB
:1035B0009C0003050400FB009E0003040400FC00C3
:1035C000A00003040400FC00A20003040400FC00AB
:1035D000A40003040400FC00A60003050400FC0092
:1035E000A80003040400FC00AA0003050400FB007B
:1035F000AC0001050200FB00AD0003050400FB0068
:10360000AF0003020400FB00000000000000000007
:10361000A5150000F9170000490B00006B0F000012
:10362000290F0000530F0000330F0000430F00006C
:10363000550E00006B0F00004F1100004D110000EF
:103640006D0F0000A90F0000E50F00002D0B00001A
:103650004B100000CD100000000A00110E00000009
:103660000000000000000000A5150000F917000090
:10367000511C00006B0F0000290F0000530F0000C9
:10368000330F0000430F0000550E00006B0F0000C9
:103690004F1100004D1100006D0F0000A90F000038
:1036A000E50F0000311000004B100000CD100000AD
:1036B00000000000003E5B4F5B3E3E6B4F6B3E1CCC
:1036C0003E7C3E1C183C7E3C181C577D571C1C5EE3
:1036D0007F5E1C00183C1800FFE7C3E7FF001824BA
:1036E0001800FFE7DBE7FF30483A060E2629792964
:1036F00026407F050507407F05253F5A3CE73C5A99
:103700007F3E1C1C08081C1C3E7F14227F22145F75
:103710005F005F5F06097F017F006689956A6060D0
:1037200060606094A2FFA29408047E040810207ECA
:10373000201008082A1C08081C2A08081E1010104F
:10374000100C1E0C1E0C30383E3830060E3E0E0695
:10375000000000000000005F0000000700070014E8
:103760007F147F14242A7F2A1223130864623649A7
:103770005620500008070300001C2241000041228F
:103780001C002A1C7F1C2A08083E08080080703094
:103790000008080808080000606000201008040203
:1037A0003E5149453E00427F400072494949462109
:1037B00041494D331814127F1027454545393C4A7D
:1037C0004949314121110907364949493646494994
:1037D000291E0000140000004034000000081422DC
:1037E000411414141414004122140802015909064A
:1037F0003E415D594E7C1211127C7F494949363E4B
:10380000414141227F4141413E7F494949417F0930
:103810000909013E414151737F0808087F00417F3B
:1038200041002040413F017F081422417F40404039
:10383000407F021C027F7F0408107F3E4141413ED1
:103840007F090909063E4151215E7F091929462653
:103850004949493203017F01033F4040403F1F2057
:1038600040201F3F4038403F63140814630304782E
:1038700004036159494D43007F414141020408104E
:1038800020004141417F0402010204404040404089
:10389000000307080020545478407F2844443838F7
:1038A00044444428384444287F3854545418000869
:1038B0007E090218A4A49C787F0804047800447D43
:1038C00040002040403D007F1028440000417F40E0
:1038D000007C047804787C08040478384444443834
:1038E000FC1824241818242418FC7C080404084814
:1038F0005454542404043F44243C4040207C1C2065
:1039000040201C3C4030403C44281028444C9090BF
:10391000907C4464544C4400083641000000770019
:1039200000004136080002010204023C2623263C26
:103930001EA1A161123A4040207A385454555921B1
:103940005555794122545478422155547840205499
:103950005579400C1E5272123955555559395454E7
:10396000545939555454580000457C410002457D56
:10397000420001457C407D1211127DF0282528F07F
:103980007C545545002054547C547C0A097F4932AC
:10399000494949323A4444443A324A4848303A4123
:1039A00041217A3A42402078009DA0A07D3D4242CC
:1039B000423D3D4040403D3C24FF2424487E494355
:1039C000662B2FFC2F2BFF0929F620C0887E0903C8
:1039D00020545479410000447D413048484A3238EF
:1039E0004040227A007A0A0A727D0D19317D26291B
:1039F000292F28262929292630484D402038080813
:103A0000080808080808382F10C8ACBA2F10283446
:103A1000FA00007B000008142A142222142A140839
:103A20005500550055AA55AA55AAFF55FF55FF0048
:103A30000000FF00101010FF00141414FF001010FD
:103A4000FF00FF1010F010F0141414FC001414F711
:103A500000FF0000FF00FF1414F404FC14141710FE
:103A60001F10101F101F1414141F00101010F0004E
:103A70000000001F101010101F10101010F0100088
:103A80000000FF101010101010101010FF10000098
:103A900000FF140000FF00FF00001F10170000FCD3
:103AA00004F414141710171414F404F40000FF00A5
:103AB000F714141414141414F700F714141417142E
:103AC00010101F101F141414F4141010F010F00034
:103AD000001F101F0000001F14000000FC14000055
:103AE000F010F01010FF10FF141414FF1410101039
:103AF0001F00000000F010FFFFFFFFFFF0F0F0F0EC
:103B0000F0FFFFFF0000000000FFFF0F0F0F0F0F7F
:103B10003844443844FC4A4A4A347E0202060602CB
:103B20007E027E0263554941633844443C04407E32
:103B3000201E2006027E020299A5E7A5991C2A49AB
:103B40002A1C4C7201724C304A4D4D303048784836
:103B500030BC625A463D3E494949007E0101017E22
:103B60002A2A2A2A2A44445F444440514A44404075
:103B7000444A51400000FF0103E080FF00000808B4
:103B80006B6B083612362436060F090F0600001834
:103B9000180000001010003040FF0101001F01015B
:103BA0001E00191D1712003C3C3C3C0000000000A8
:103BB0000000000000000000F9160000BF16000021
:103BC000E5160000EF1600001F170000E3160000C6
:103BD000535049436C6173733A3A535049436C6193
:103BE0007373284E52465F5350495F547970652A6B
:103BF0002C2075696E74385F742C2075696E74386A
:103C00005F742C2075696E74385F742900705F735F
:103C1000706920213D204E554C4C002F5573657224
:103C2000732F67686F656C7A6C2F4C696272617272
:103C3000792F41726475696E6F31352F7061636BD6
:103C4000616765732F73616E646565706D69737408
:103C500072792F68617264776172652F6E52463592
:103C60002F302E372E302F6C696272617269657346
:103C70002F5350492F5350492E637070000000009D
:103C8000030000000200000001000000040000002A
:103C900005000000110000000C0000000B000000F7
:103CA000120000000A000000060000001A000000D8
:103CB00014000000170000001600000015000000AE
:103CC00010000000FFFFFFFFFFFFFFFF00000000EC
:103CD0001E0000001900000018000000070000008E
:103CE00008000000090000000D0000000E000000A8
:103CF0000F0000001C0000001B0000001D00000061
:103D00001300000000000000000000004119000046
:103D1000F9170000B1190000C5190000BB19000017
:103D20003D19000031190000D11900005D19000093
:103D30002D1900002C2066756E6374696F6E3A2031
:103D400000617373657274696F6E2022257322207F
:103D50006661696C65643A2066696C65202225732A
:103D6000222C206C696E65202564257325730A005A
:103D70004300000090000020232D302B2000686CB1
:103D80004C0065666745464700303132333435367E
:103D900037383941424344454600303132333435B7
:103DA00036373839616263646566000000000000E0
:103DB0000000000000000000000000000000000003
:103DC00000000000000000000000000000000000F3
:103DD00000000000000000000000000000000000E3
:103DE00000000000000000000000000000000000D3
:103DF00000000000000000000000000000000000C3
:103E000000000000000000000000000000000000B2
:103E100064C3FF7F01000000000000000A000000F2
:103E200084010020EB310000F13100006F3D000003
:103E3000C8310000CD310000D2310000D93100007E
:103E4000E0310000E5310000AF310000B03100008A
:103E5000B9310000C23100000F000000F73100004E
:103E6000102700001A1B1C010201020103030303B7
:103E70000302010203020101010101030203020323
:103E800003040A17181909070601040205030405AB
:103E900006070802090309010807060504030701CC
:103EA000060200000024F40000000000AC3D000009
:103EB000CC3D0000EC3D00000000000000000000D0
:103EC0000000000000000000703D00000000000045
:103ED00000000000000000000000000000000000E2
:103EE00000000000000000000000000000000000D2
:103EF00000000000000000000000000000000000C2
:103F000000000000000000009000002039010000C7
:103F1000650A000069170000C9170000351C000081
:103F20000D01000000000000FFFFFFFFFFFFFFFF8B
:103F3000FFFFFFFFFFFFFFFFFFFFFFFFFFFFFFFF91
:103F4000FFFFFFFFFFFFFFFFFFFFFFFFFFFFFFFF81
:103F5000FFFFFFFFFFFFFFFFFFFFFFFFFFFFFFFF71
:103F6000FFFFFFFFFFFFFFFFFFFFFFFFFFFFFFFF61
:103F7000FFFFFFFFFFFFFFFFFFFFFFFFFFFFFFFF51
:103F8000FFFFFFFFFFFFFFFFFFFFFFFFFFFFFFFF41
:103F9000FFFFFFFFFFFFFFFFFFFFFFFFFFFFFFFF31
:103FA000FFFFFFFFFFFFFFFFFFFFFFFFFFFFFFFF21
:103FB000FFFFFFFFFFFFFFFFFFFFFFFFFFFFFFFF11
:103FC000FFFFFFFFFFFFFFFFFFFFFFFFFFFFFFFF01
:103FD000FFFFFFFFFFFFFFFFFFFFFFFFFFFFFFFFF1
:103FE000FFFFFFFFFFFFFFFFFFFFFFFFFFFFFFFFE1
:103FF000FFFFFFFFFFFFFFFFFFFFFFFFFFFFFFFFD1
:1040000012F00DF962680D9811AB019200900293C5
:104010000A46002303A80A9902F027FA010003D1F7
:104020002078C10603D400E086E080062AD56846E1
:104030000586606900280DD109A90EA8FFF7A3F92C
:104040006846818C03208002814301208002091888
:10405000684681846946888CC821084369468884FB
:1040600074488F73FF30888112AA0CA90220029233
:10407000019100900023714A03A8099902F0F5F913
:10408000010059D12078C00729D068460586A0696B
:1040900000280DD10BA90EA8FFF775F96846818D90
:1040A000032080028143012080020918684681852F
:1040B0006846818D40200143684681858773604949
:1040C000818113AA0CA90220029201910090002381
:1040D0005A4A03A80B9902F0C8F901002CD1E068F4
:1040E00000282DD010A8149901805549684687737F
:1040F000491C8181E16808A80A78027449784174F2
:10410000E0684122418868464186E06800230179E1
:1041100008A80175E068D200C18808A84175090A9D
:1041200081750CA8072101900091029503A81099B0
:1041300002F09BF9010003D00F9800F0EAFEFDE5C4
:104140003D480321001F0170002E0AD08088308076
:1041500010A88088708010A80089B08010A880897D
:10416000F0800020EAE530B501248BB015460B46FF
:10417000012802D002281CD104E06846052184737E
:10418000C90203E02B4968468473891E8181002B94
:1041900012D003210020890288430121890240189E
:1041A0006946888405AA04A91846FEF7A6FD0028DA
:1041B00004D007200BB030BD1020FBE76A46127C0C
:1041C0001D480092801E05A9FF3201910290FF3226
:1041D000002303A80332099902F047F9002802D00E
:1041E000FEF75FFFE6E71448001F002D01D041886D
:1041F000298004700020DDE770B592B004460126E6
:1042000008A886700F496846018410AA08A930469C
:10421000FFF7A9FF00284DD12078074DC0070024E3
:104220002D1F002848D01C21684611F0DDFF0BE04F
:1042300000800100032800000409002003020000A0
:10424000032900000118000068460178202001437E
:104250006846017008A88670F9496846018411947F
:104260000794817FF92001406846891C81770020EE
:1042700001466846017700200146684641770421DF
:104280008185C485018607A80A9011A80D9008A809
:1042900009900EAA09A96846FFF730FD002809D148
:1042A0006846008FE8806846808F2881401C6881BE
:1042B0002C70002012B070BDEC802C8110A80088FA
:1042C000F4E7F7B5DF4900260A789EB0012A04D04A
:1042D000022A02D0082021B0F0BD4A88824201D0D3
:1042E0000620F8E71F98824201D10720F3E7012258
:1042F00010A98A75D4488882002003239B020146B6
:1043000099439302CB1810A90B8669468A81CF4A3C
:10431000CA8118A9887110A9888419A904916946CD
:10432000CA820690FF20087503A802F072F90024E3
:104330002546274608AA052103A802F06DF90028A2
:1043400010D082286FD1002C6FD0002D6DD010A816
:104350008480C5800021017418A8807B11AC0128DD
:1043600065D06DE008A88079002F21D0012857D1B1
:104370006846818CB44881421CD113AA0DA905203E
:104380006B4607C36846408C10230022FF2102F0D1
:10439000B5F9002868D110A88089042801D0062822
:1043A0004CD16846818E1F98814239D10F2092E707
:1043B000012835D16846808C0521C902884202D087
:1043C000491C88422CD19F4841886846408C8142D4
:1043D00001D1012700E00027002C01D0002D10D0D2
:1043E0001F9988421CD113AB0DAA05216E460EC63B
:1043F000044610230022FF2102F080F9002833D167
:1044000001E035460CE010A88089022801D0102870
:1044100014D1C0B21BAA0DA9FEF749FC00280DD18A
:104420006846468C86E71FE0FFE7052053E714A99E
:104430001BA8221DFEF761FC002801D003204AE7DB
:1044400010A8007C0023001DC2B210A8027420989E
:1044500002900194009215A81C9902F006F8002819
:1044600002D1784902220A70FEF71BFE33E710B52D
:104470000B46401E86B084B203AA00211846FEF700
:1044800039FF04AA052103A802920191009001239B
:104490000022FF21204601F04DFF04466846008AB5
:1044A000012804D06D206A49000111F0BCFF2046AC
:1044B000FEF7F7FD06B010BDF0B5624F0446387840
:1044C00087B00E46032804D0042802D0082007B085
:1044D000F0BD04AA03A92046FEF7E5FE0500F6D1CB
:1044E000606880784007800F02280DD16846808977
:1044F0008004800F08D02069002805D0554909683C
:10450000884201D21020E2E7208905AA6B46216982
:1045100007C369460A8A63892068039901F0A5FFE9
:10452000002802D0FEF7BDFDD1E7002E02D068467C
:10453000808A3080042038702846C8E738B50C00DF
:10454000054609D000236A46FF2102F039F9002808
:1045500004D0FEF7A6FD38BD102038BD69462046C0
:10456000FEF74BFE0028F8D1A078FF21C307DB0F30
:104570002846009A02F04CF9EBE73EB50C0009D052
:1045800002AB6A46FF2102F01BF9002804D0FEF7B7
:1045900088FD3EBD10203EBD0321204611F022FEC5
:1045A0006846008801A90005800FFEF712FE00286A
:1045B0000BD16846007920706846008801A9800404
:1045C000800FFEF706FE002801D003203EBD68469E
:1045D00000796070A278EF20024068460088C10B25
:1045E00009010A43F7210A404104C90FC9000A43DF
:1045F000A270F9210A40800601D5022000E00120C6
:10460000400069460243097A50084000C907C90FB3
:104610000843A07000203EBD7FB5144605220192DC
:1046200003AD029500930A462388FF2101F082FE24
:10463000694689892180FEF734FD04B070BD000011
:10464000052A00000009002002280000FFFF0000EA
:10465000E838000028000020F3B5002799B068462C
:104660000C4607873D4600291ED0E068002806D08A
:10467000A068002818D001886A4611870780199819
:1046800004F0BDFD002812D0007822287ED31998AE
:1046900000F03BFC002300901A460321199808F013
:1046A00069FA060009D104E010201BB0F0BDFD48F6
:1046B000FBE7FD49FD4811F0B6FEA078012803D0C4
:1046C000022801D00720F0E72088002808D0401EEB
:1046D00080B203AA009901F070FF002859D11DE0B3
:1046E000F048401CE1E76946498A228891420BD292
:1046F0006846807D0025012810D16846808AEC49F3
:1047000088420BD1012509E0914203D1002D2AD026
:104710006D1C01E0022D0BD0032D04D203A801F083
:1047200055FF0028DFD082281BD0002831D11DE0A2
:104730006946897D0129F1D16946DD4B8A8A5B1E74
:10474000D11A9A420FD005DCDA48101A0BD0012892
:10475000E4D108E0012906D0FF390129DED1032583
:10476000E1E7022D15D10D2080029EE7E0680028C8
:1047700016D00EA9052202910192009069460B8F76
:10478000A2882088FF2101F0D5FD00E01EE000286E
:1047900002D0FEF786FC88E76846A168008F088093
:1047A0006846008AC00601D5C3487EE707980028FE
:1047B00003D06846008B022801D0032075E70798D4
:1047C000A1780078012903D0800710D408206CE775
:1047D000C007FBD000220721199808F010F8002824
:1047E00002D00725022004E0AE48801C5DE70225C8
:1047F000032008A908702188684681851998083621
:104800000A90099617216846818712AB02330FAAD6
:10481000052108A800970CF018F8002802D0FEF730
:10482000ACFC42E710A800906846838F042229461A
:10483000199807F0FCFC38E770B5064615460C469B
:104840000846FEF7EBFB002804D12A4621463046F5
:10485000FFF789FCF2E610B5FFF733FD10BD70B528
:104860001E4614460D0014D0002C12D06168002999
:104870000FD00121FEF741FE002809D12068FEF784
:10488000CDFB002804D1324621462846FFF736FAF0
:10489000D4E61020D2E670B515460C000ED00221E9
:1048A000FEF72BFE002808D12068FEF7B7FB002892
:1048B00003D129462046FFF7FFFDBFE61020BDE6E5
:1048C000F8B506467D480D46016814468A4231D344
:1048D0006068002808D07A4A90422BD301229204C3
:1048E000904201D3884225D37648864204D0304690
:1048F00004F085FC00280CD0304600F006FB06468C
:10490000284600F0BFFA002804D16068002802D0D1
:1049100012E06448F8BD00236A463146284601F09B
:104920004FFF002802D0FEF7BCFBF8BD68460088A8
:10493000800601D41020F8BD6188224628466368AD
:10494000FFF76AFEF8BDF7B55C4E0746306886B0E3
:104950001446824202D2102009B0F0BD384600F061
:10496000D4FA05465748874201D0FF2D08D00023CE
:1049700004AA2946079801F023FF002826D101E068
:104980004848E9E76846008AC00601D54A48E3E797
:1049900003A9002002910527019000976288494BE6
:1049A0002946079801F0AAFE00280FD161683268F5
:1049B000914208D30191029000972388628829468A
:1049C000079801F09BFE694689892180FEF769FB03
:1049D000C2E7002907D03C4B0A881B899A4202D8BB
:1049E0003048401C704737E610B586B004236C464B
:1049F000A382354BDC88002C07D01B898B4201D267
:104A0000914204D92748401C54E5062052E56B46E4
:104A100019825A820021009101911C800221997013
:104A200005A9029104A903916946FFF715FE41E526
:104A3000F3B50C4685B0812069460873002C1BD065
:104A4000059804F0DCFB070018D03878222869D3D9
:104A5000059800F05AFA049000220121059807F009
:104A6000CEFE00280CD000231A460321059808F03A
:104A700081F805000AD105E0102028E5094826E55F
:104A8000112024E50849114811F0CDFC28460830D2
:104A90000BF032FB06462078012819D0022838D0C6
:104AA000072014E502300000E8380000E1080000AB
:104AB0000328000000280000013400002800002026
:104AC00000800100FFFF000000090020840A0000B0
:104AD000A18803AAFEF71CFB0028CED1B00721D580
:104AE0006846007B00281FD1A079C0071CD0E06871
:104AF000002205216B4607C36389228968880499CF
:104B000001F018FC6946087300280DD0FEF7C9FAB9
:104B1000DDE4A18803AAFEF7FBFA0028ADD134201A
:104B2000064201D10820D2E46846037B2946384674
:104B3000059AFEF70BFDCAE4FFB597B0002001907F
:104B40001F4615460C460E46179804F058FB0028E1
:104B500004D00078222803D20820A6E5F448A4E572
:104B6000B80801D00720A0E5032F00D1002717982F
:104B700000F0CBF90890002C1BD0022D77D3ED4824
:104B8000006884427CD361190091012902D0491E3A
:104B9000814275D3AD1EAAB22146E74810F036F81F
:104BA00000991E394A7F0B7F11021943884267D151
:104BB000ADB2E248B90702D50189491C00E00121E4
:104BC00089B20091F90701D0078900E0DA4F03AA02
:104BD0000899009801F0F1FC0DE0F078B17800023E
:104BE000084310284CD80199091D401880B2019043
:104BF000A84245D82618002E60D07078317800027F
:104C0000084300998842E8D358E06946098A0A07B0
:104C100054D5002C3FD0019AA618121D92B20992C9
:104C2000F278B37812021A439446102A28D8099AC7
:104C30006244AA4224D87278337812021A4390420E
:104C40001ED1C8061ED509980AAA052120186B4650
:104C500007C3707831780002084363460022089940
:104C600001F068FB002803D0FEF71BFA1DE507E002
:104C7000F078B178000208436946098D884201D076
:104C80000B2012E5F078B17800020843099940182A
:104C900080B2019006E0C90604D50899FEF793FC9E
:104CA0000028E3D16946088A1021884369460882B2
:104CB000488AFF23049A089901F0AAFD03A801F08D
:104CC00085FC002803D16846408AB8429DD900235C
:104CD0001A460321179807F04DFF040003D19849A5
:104CE000984811F0A0FB20880028BFD0012108A817
:104CF00001700173002646732188684601862046AC
:104D00000830099017980A90FCF712FE05001BD096
:104D10001798688017206946888010AB023301AA73
:104D2000052108A800950BF090FD0746687800075C
:104D300004D584488249223011F075FB002F09D038
:104D40003846FEF71AFAB0E41321179805F04AFD29
:104D50000320AAE40EA8009068468388042201215B
:104D6000179807F064FA00288BD126809DE4F0B5EF
:104D700000248DB01F4615460E46002A04D0B908FF
:104D800004D007200DB0F0BD1020FBE7032F00D1A9
:104D9000002700F0BAF80390FF2804D06749B8074D
:104DA00003D5488902E06248ECE70120FA0702D007
:104DB0004989491E00E0604906AA8FB2039901F0B3
:104DC000FCFB38E06946898B090734D504AB052123
:104DD0000022029300910192574B039901F08EFC3F
:104DE000002821D1002E21D06A46128A2988A218D3
:104DF0003019121D914234D36946CA8B0270120ACF
:104E000042700A8A8270120AC27004A90522001D2B
:104E10000092029101906946C88B0B8A0022039987
:104E200001F06CFC002801D00320ABE76846008A43
:104E30002018001D84B206A801F0C8FB002804D089
:104E4000822806D0FEF72DF99CE76846C08BB84251
:104E5000B8D9002C07D0002E10D02988A01C814280
:104E600003D20C208EE705208CE7224631463248DB
:104E70000FF0CCFE31190870000A4870A41C2C8079
:104E800000207FE700B585B06946FEF79FFA00284D
:104E90000AD16846007C030011F0B6FB08052F2FED
:104EA0002F2F08080531032005B000BD6846807823
:104EB000012807D1684600880321C902401A1CD086
:104EC00001281AD068468079012806D16846808872
:104ED00015214902401A05280FD96846807A012811
:104EE00011D16846018929200002081A05D002283C
:104EF00003D0032801D0042805D10F20D4E712A144
:104F0000164811F090FA0020CEE710B507F028FE01
:104F100010BD10B50C4601F023FB002803D00AA1F8
:104F20000F4811F080FA2046FEF7BBF810BD0000D4
:104F30000230000028000020FFFF000000090020D0
:104F4000E83800003F0B00007372635C67617474A3
:104F5000735F636F72652E63000000002202000021
:104F6000BB060000F8B500780C46164610340E3625
:104F7000069F022809D0032836D005287ED0FF20BE
:104F8000F6A1E53011F04FFAF8BDCD890A2068434B
:104F90000E30188031203880002AF5D0087B9581AA
:104FA000801FC7B21AE020886168308048780A788C
:104FB00000021043F080C8788A78000210433081E4
:104FC000B21C3846091DFDF772FE002F01D00028E3
:104FD00002D000203071708008340A3628466D1ED9
:104FE000ADB20028DFD1F8BDCD890A2068430E306C
:104FF000188032203880002AF5D0087B9581401F28
:10500000C7B243E0616822880878F2803279C3072A
:1050100052085200DB0F1A43FD231A408307DB0FAF
:105020005B001A43FB231A404307DB0F9B001A4324
:10503000F7231A400307DB0FDB001A43EF231A4064
:10504000C306DB0F1B011A43DF231A408306DB0F65
:105050005B011A43BF231A404306DB0F9B011A432F
:105060003271C00970718A784B7810021843308110
:1050700032463846C91CFDF71AFE00E00CE0002855
:1050800002D00020B070308008340A3628466D1EE9
:10509000ADB20028B6D1F8BD087BCD89801E86B29E
:1050A0003046083068431030188034203880002A99
:1050B000F1D0174695811037E800D681C0190090CD
:1050C0000DE020883880009878603246616800984A
:1050D00011F02BF800980834801908370090284602
:1050E0006D1EADB20028ECD1F8BDFFB581B00A9DB0
:1050F0001E460C46002A05D0607AFF300130D08071
:10510000E089108101980E270078030011F07CFAE5
:105110000B7E0719293541536C7878787E00009210
:10512000087B082805D0032803D091A1954811F0E9
:105130007AF9378030200FE000990020888105B08F
:10514000F0BD0092087B042804D08E4888A114305A
:1051500011F069F937803120288000980028EBD1C0
:10516000EDE70092087B042804D0932080A1800002
:1051700011F059F937803220EEE70092087B0228BF
:1051800004D080487AA13A3011F04DF937803320AD
:10519000E2E7087B1746042804D07A4874A14C3013
:1051A00011F041F91020308034202880002FC6D023
:1051B0000020B88116E0207B1746052806D0062877
:1051C00004D070486AA1603011F02DF912203080AF
:1051D00035202880002FB2D0E089B88100203882A5
:1051E00001984088F881AAE70092087B072804D03C
:1051F00064485FA1713011F016F937803620ABE7B3
:1052000033460095019800F00EFC98E72F2053A13B
:10521000000111F008F992E770B50C46054603F05D
:10522000EEFF002804D00078222803D2082070BDA9
:10523000554870BD00231A460421284607F09AFC01
:105240002060002801D0002070BD032070BDFFB594
:105250008BB00D4607461720694608850E98032631
:105260001446002805D10EA93846FFF7D5FF0028BF
:1052700034D1002D0BD000220321384607F0BFFAAD
:10528000002834D00E980078002830D108E020782B
:10529000092819D00F2823D030A13C4811F0C3F8B9
:1052A0000E98A760801D03AA606002320AA92046FA
:1052B00000F00FFC002827D0030011F0A5F9071A11
:1052C000182323211C1E23000726002231463846BE
:1052D00007F095FA0028E3D12B48801C0FB0F0BDF1
:1052E00000220321384607F08AFA0028D8D111207D
:1052F000F4E70020F2E70820F0E72348401CEDE740
:105300000720EBE70320E9E701A800906846038D3A
:1053100004223146384606F08AFF0028DED1002DEF
:10532000DCD00E990D70D9E730B587B01D460C461C
:10533000002A11D0042369460B7013888B81528890
:10534000CA81A2788A7422880A8200236A46294682
:10535000FFF77DFF07B030BD1020FBE77372635C81
:1053600067617474635F636F72652E630000000091
:105370007372635C67617474635F636F72652E63DD
:105380000000000025020000023000004F03000072
:10539000F3B581B001980C4600780826030011F09F
:1053A00033F9125F47471B134B0A0A0A0A0A0A0A13
:1053B0000A0A0A0A0A5F002C02D1F849F84808E0F4
:1053C0006078304360703CE0002CF9D1F448F34938
:1053D000083011F028F8F3E70198002380880122B3
:1053E00087B20421384607F0C5FB0546002C04D0DF
:1053F0007520EA49C00011F016F8002D04D1E848E4
:10540000E649143011F00FF83946A81D00F058FB9A
:10541000FCF78EFA040006D0607830436070678035
:10542000FCF767FA0FE01321384605F0DBF915E0C9
:10543000DB48DA49283002E0D948D8492D3010F04D
:10544000F2FF002C0AD06078000707D59320207067
:105450002046582208300199FBF7B6FE0020FEBD19
:10546000CF48CE493130EAE710B500210170801DE8
:1054700000F023FB10BD0A4610B50146901D00F058
:1054800027FB10BD70B5002305461A46042107F01E
:1054900071FB040004D1F920C049800010F0C3FF63
:1054A0002946A01D00F00CFB70BDF7B5054684B081
:1054B0000C4600206946088188806F8803460122D7
:1054C0000421384607F056FB060004D1FD20B349FD
:1054D000800010F0A8FF002C03D0A7800020E080FF
:1054E0002081297A20461230C91E142700900B0013
:1054F00011F08AF80FFEFDFC3809A95E657A2FB21B
:10550000C9E99191FC003078012804D0A3497020AA
:10551000143110F088FFA9896A46C8000E309080C7
:1055200030201081002C13D0A18100200DE0C1009B
:10553000327909190A747288CA8182005319DA898A
:105540004A821A8A401C8A8280B2A1898142EED89E
:10555000F1E002A8009001AB22462946304600F057
:105560002BFAE8E03078042804D08C49BD201431AF
:1055700010F059FFA8890622014650436A460E30B2
:10558000908033201081002CE2D0A18100200BE01C
:10559000062141434F190919FA89CA81BA7C8A74D4
:1055A0003A8A401C0A8280B2A1898142F0D8C2E0C6
:1055B000307806280BD079491431D72005E03078AF
:1055C000062804D07549EB20143110F02CFFE8892F
:1055D00069461230888035200881002CB8D0A9890E
:1055E000A1817188E18126E03078072804D06B49D9
:1055F000FF20143110F017FFA8896A4601460E30CB
:10560000908036201081002CA2D0A1812046AA894A
:105610000E30296954E0E8896946123080B2382298
:1056200088800A81002C7ED0A989A181287A10283F
:1056300007D00221A173E9892182EA8929690098AA
:105640003EE00121F6E702A8009001AB2246294680
:105650003046FFF787FC6EE03078082805D04F49C8
:10566000FF201431EE3010F0DEFE684637218780CF
:105670000181002C5FD0A989A18100206082208255
:105680000120A07357E03078092805D04349FF2056
:105690001431FF3010F0C7FE288A69461430888024
:1056A00037200881002C46D00421A173A989A1814B
:1056B000E9892182298A618220462A8A143069690F
:1056C00010F033FD37E030780A2804D033493548EC
:1056D000143110F0A8FE6846372187800181002C24
:1056E00029D00521A1730020A08102E01EE003E083
:1056F0000CE0208260821EE002A8009001AB2246EE
:1057000029463046FFF7F1FC15E00CE00D20694614
:10571000392288800A81002C05D00120E0800020F9
:105720002081207307E00699088019E01C481B4976
:10573000A43010F078FE6846069980880880002C16
:105740000ED0684600892080684680886080287A6C
:10575000032805D0102803D0112801D00020307074
:10576000002007B0F0BDF7B5568815460F46002358
:1057700082B01A460421304607F0FCF9040004D137
:1057800007480649C43010F04EFEA41D33462A4691
:1057900039460094029800F022FBD0E45C530000EC
:1057A0009503000013020000F7B58CB00D461446B7
:1057B00007A90C98FFF730FD002812D1B64E01273B
:1057C000002C0FD00321684601701021818208A8A7
:1057D00002460690204605A9FDF78FFA00280BD057
:1057E00007207BE50821684601708581C681052177
:1057F0008774C90201820BE00798A17801712188A2
:105800004180684605218774C90201828581C6816D
:1058100002460121079B0C98FFF719FD5EE508B5CC
:1058200001236A4693709D4B13800A460223694602
:10583000FFF77AFD08BD08B501236A469370974BC0
:105840005B1C13800A4603236946FFF76DFD08BD04
:1058500000B587B000290CD002236A4613700B886C
:1058600093814988D18100230421FFF7F0FC07B020
:1058700000BD1020FBE710B5002903D00523FFF77A
:1058800053FD10BD072010BD70B588B00D461446FD
:10589000064607A9FFF7C0FC00280DD1002C0DD04B
:1058A0000621684601708581C481079B02465C80A1
:1058B00006213046FFF7CBFC08B070BD05216846D5
:1058C00001708581F1E710B588B000290BD007245D
:1058D0006B461C709A81049100236A462146FFF7AB
:1058E000B6FC08B010BD1020FBE770B500241722ED
:1058F00088B0002914D00D782B0010F085FE062307
:10590000050519041B231522D21E93B2CA88002A4A
:1059100002D08E68002E03D09A4203D90C20CBE728
:105920001020C9E7042D05D08A88002A0AD101E099
:105930000620C1E7012D11D0022D05D0042D18D06D
:10594000052D23D00720B7E709236A4613704B883B
:105950009381CB88D381896804911DE00C236A462A
:1059600013704B889381CB88D38189680824049174
:1059700012E00D236A4613704B8893818B88D38184
:10598000CB88138289680924059105E00E236A46B5
:105990001370497811730A2400232146FFF757FC3E
:1059A0008AE700B587B00F236A4613709181002300
:1059B0001946FFF74CFC5AE7FEB50078089D1C46D7
:1059C00016460F46012803D03549912010F02BFDD3
:1059D000F889C0000E30208030202880387B001FDE
:1059E000C0B20190002E1DD0F889B081002516E0CC
:1059F000E8008419C0190090224641690E320198CE
:105A0000FDF755F9002802D000202074E0810098AD
:105A10006D1C008A60820098ADB2408AA082B08975
:105A2000A842E5D8FEBD70B514461425049A1D8021
:105A300037231380002C0ED0CA89A28100226282F3
:105A40000078082808D0092810D00A2819D014494D
:105A5000144810F0E8FC70BD087B0C2804D01148F5
:105A60000F490C3810F0DFFC012008E0087B0D28FE
:105A700004D00C480A49083810F0D5FC0420A07363
:105A800070BD087B0E2804D006480549001F10F0A1
:105A9000CAFC0520F3E70000FFFF00000228000019
:105AA00070530000BB02000010B5FE4B5860197225
:105AB0001A80C90010F098FB10BD002101807047CA
:105AC00010B50022D2430280032007F0F8FC10BD7D
:105AD0007047F0B50E460446017801208840F2492F
